:020000020000FC
:040000000C941E003E
:040010000C945900F3
:100038000C9445000CE304B905B900E007B902E0E7
:1000480004BD05E005BD0CE707BD02E000936E00A6
:1000580002E0009368000EE000936C0080E040E04E
:1000680000E0DFEFA0E0789400000000000000004E
:100078000F6F000000000000B9F70000000000004A
:10008800FCCF4FB783958D3711F04FBF1895882750
:10009800A395BA2FBD27BB1FBB1FB5B9AF3011F051
:1000A8004FBF1895AA270C945400CFB7319B05C0B1
:1000B800329B0C946400CFBF1895AA27CFBF189520
:0800C800339B0C944B00FCCFAC
:00000001FF
